007012016F    0004800002016  00400003000020000000000000000                                                                                                                                                                                                          
1129039       129       00000008412131425102AGUAPLAST-TUBO INSTANTANEO  200ML. 1421  0000004000000000344000450001165000000000000000000000300                                                                                                                        
1138122       138       00000008003872023810PEN-BROCHA 593-30 CURVA                  0000004000000000090000000000000000000000000000000000300                                                                                                                        
1164195       164       00000008421724611013MACY-ESMAL. MATE NEGRO  576 0,375L       0000004000000001025000480000000000000000000000000000300                                                                                                                        
1218229       218       00000008429578075104INDUS-ALDABILLA RETENIDA ZINC.100 150751 0000020000000000017400000000000000000000000000000000700                                                                                                                        
1224EZDS15R   224       00000008422513234864LLAVINES-6 EZ-DS15R SEG. LATON           0000050000000000070000000000000000000000000000000000700                                                                                                                        
1547404       547       00000008430045048989X-TREM-ZAPATO SEGURIDAD ATLAS 40  463702 0000001000000002575000350000000000000000000000000000300                                                                                                                        
1547470       547       00000008427473191110X-TREM-TRAJE AGUA AZUL T/  L   354093    0000001000000000642100000000000000000000000000000000700                                                                                                                        
1547471       547       00000008427473191127X-TREM-TRAJE AGUA AZUL T/ XL   354094    0000001000000000642100000000000000000000000000000000700                                                                                                                        
1547472       547       00000008427473191134X-TREM-TRAJE AGUA AZUL T/XXL   354095    0000001000000000642100000000000000000000000000000000700                                                                                                                        
1605016       605       00000008421029014601ENEIDE-FAGOR-OLLA RAPIDA-GOMA 01460      0000001000000000532000330000000000000000000000000000700                                                                                                                        
1811002       811       00000008427473021882TABLERO CONTRACH.MARQUE 60X40 ILOMBA2500 0000010000000000165300000000000000000000000000000000300                                                                                                                        
