003052016F    0175030002016  00400003000020000000000000000                                                                                                                                                                                                          
1164180       164       00000008421724611488MACY-ESMAL. SATINADO BLANCO 503 0,125L   0000004000000000519000480000000000000000000000000000300                                                                                                                        
1164329       164       00000008421724603360MACY-ACEITE TEKA 750CC                   0000001000000001256000480000000000000000000000000000300                                                                                                                        
1324009       324       00000008412353011633SPB-AGUARRAS PURO  500ML.                0000001000000000131000000000000000000000000000000000300                                                                                                                        
1454406       454       00000008420833021188BRIXO-G.MONOMANDO FREG.PARED      900068 0000001000000002693000000000000000000000000000000000700                                                                                                                        
1479052       479       00000008425144960706G MADEIRA MONOM. BAÑO-DUCHA 96070        0000001000000003234000000000000000000000000000000000700                                                                                                                        
1576045       576       00000008430045080026BRIXO-CEPILLO PUA AC.LT.C/MG PLA. 472132 0000005000000000075000000000000000000000000000000000700                                                                                                                        
1644102       644       00000008427473500035ESCALERA ALUMINIO ENEIDE-PLUS 5 P 472903 0000001000000002552500000000000000000000000000000000700                                                                                                                        
1645003       645       00000008413456022717PICO-MOPA C/BASTIDOR 45X14  02271        0000001000000000458300000000000000000000000000000000300                                                                                                                        
1645008       645       00000008413456011315PICO-PALO MOPA ALUMINIO 1,40  01131      0000001000000000131400000000000000000000000000000000700                                                                                                                        
1817001       817       00000008420833025001ENEIDE-RELOJ 30,5X30,5X4,3 BLANCO        0000001000000000446000000000000000000000000000000000700                                                                                                                        
