005012016F    0003160002016  00400002000000000000000000000                                                                                                                                                                                                          
1148036       148       00000008427648320741STAYER-VE-TALADRO TH-601BA 13MM 600W     0000001000000002197000000000000000000000000000000000700                                                                                                                        
1148554       148       00000008427648225121STAYER-RO-FRESADORA RECTA PR6            0000001000000005352000000000000000000000000000000000700                                                                                                                        
1229511       229       00000008424775604058K-DESATASCADORES PEQUEÑOS  1060405 88551 0000004000000000199500000000000000000000000000000000700                                                                                                                        
1404631       404       00000008430863000145MH-CANDADO LATON MOD.6 50MM A/N IGUA.KA1 0000006000000000509900000000000000000000000000000000700                                                                                                                        
1454126       454       00000008420833020099BRIXO-GRIFO CHORRO BOLA 1/2"      136119 0000012000000000208100000000000000000000000000000000700                                                                                                                        
1467020       467       00000008426871005357FOMI-JGO TORN. SUJ. INOD. TI1 0140564050 0000025000000000068000220000000000000000000000000000700                                                                                                                        
1467027       467       00000008426871005319FOMI-MECANISMO AQUA98-1 0139010211 SUP.  0000004000000003078000250000000000000000000000000000700                                                                                                                        
1467054       467       00000008426871036689FOMI-PULSADOR AQUA P1 0142203110         0000004000000000530000220000000000000000000000000000700                                                                                                                        
1467083       467       00000008426871004886FOMI-JUNTA CISTERNA/INOD. JI1 0138048040 0000006000000000092000220000000000000000000000000000700                                                                                                                        
1467096       467       00000008426871031400FOMI-MECANISMO CYCLON-10 0129206031 SUP. 0000004000000001181000250000000000000000000000000000700                                                                                                                        
1479050       479       00000008425144960683G MADEIRA MONOM. LAVABO 96068            0000002000000004378000530000000000000000000000000000700                                                                                                                        
1497019       497       00000005602097121276AJS-TAPON 1L CILI.AGLOM.44X23(500) 12127 0000500000000000004500000000000000000000000000000000300                                                                                                                        
1539608       539       00000008430045023771BRIXO-L-E.BASE MULT.6T TT INT.TER.331202 0000003000000001023000350000000000000000000000000000700                                                                                                                        
1640040       640       00000008009271871014IP-RATTAN-SILLON MONOBLOC ALTO EDEN ANTR 0000002000000001351000000000000000000000000000000000000                                                                                                                        
1643035       643       00000008430041691608BRIXO-ALICATE CORTE DIAGONAL 160MM800047 0000006000000000238000000000000000000000000000000000700                                                                                                                        
1643265       643       00000008430045097369X-TREM-GAFAS PROTEC.POLICARB.AJUS.473499 0000006000000000128000000000000000000000000000000000700                                                                                                                        
1643266       643       00000008430045097376X-TREM-GAFAS PROTEC.POLICARB.TRANS473500 0000006000000000098000000000000000000000000000000000700                                                                                                                        
1643277       643       00000008430045098137X-TREM-VISERA PROTECTORA DE MALLA 473555 0000004000000000409000000000000000000000000000000000700                                                                                                                        
1643278       643       00000008430045098144X-TREM-VISERA PROTECTORA POLICARB.473556 0000004000000000409000000000000000000000000000000000700                                                                                                                        
1753016       753       00000008420833022505IRIS-HORNILLO PAELLERO GAS 128979 173000 0000004000000001211000000000000000000000000000000000700                                                                                                                        
1766073       766       00000003016661042560TEFAL-PICADORA A320R1 MOULINEX           0000001000000003757000000000000000000000000000000000700                                                                                                                        
1766141       766       00000003045386759309TEFAL-BATIDORA AMASAD.ABM11A30 EASYMAX   0000002000000001987000000000000000000000000000000000700                                                                                                                        
1772426       772       00000008002522980466CON-TERMOMETRO ASADOS 298046             0000001000000000289000250000000000000000000000000000700                                                                                                                        
1813901       813       00000008718158432643PROMO-BANDEJA MELANINA 37X29CM 177000860 0000001000000000387000000000000000000000000000000000700                                                                                                                        
