009032016F    0097430002016  00400002000000000000000000000                                                                                                                                                                                                          
1104008       104       00000005422202102170ALEX-RUEDA 1-0217 D-50 22KG        BASE  0000010000000000350000300000000000000000000000000000700                                                                                                                        
1129024       129       00000008412131121004AGUAPLAST-MAD. TUBO ROBLE 125ML 2283     0000006000000000158000000000000000000000000000000000300                                                                                                                        
1129026       129       00000008412131121028AGUAPLAST-MAD. TUBO NOGAL OS 125ML 2282  0000006000000000158000000000000000000000000000000000300                                                                                                                        
1129045       129       00000008412131402349AGUAPLAST-POLVO ESCAYOLA  1 KG 1349      0000010000000000216000450000500000000000000000000000300                                                                                                                        
1228224       228       00000005032227340817ACEITE 3EN1 PENETR.AFLOJATOD.250ML 34528 0000006000000000382000050000000000000000000000000000300                                                                                                                        
1324017       324       00000008436032030340SPB-DISOLVENTE UNIVERSAL  0,5L.          0000024000000000154000000000000000000000000000000000300                                                                                                                        
1324019       324       00000008412353012623SPB-DISOLVENTE UNIVERSAL  5L.            0000004000000000944000000000000000000000000000000000300                                                                                                                        
1433012       433       00000007420171071709PENT-RODILLO ANTIGOTA 22CM 7170          0000008000000000321000000000000000000000000000000000300                                                                                                                        
1433053       433       00000008420118077374PENT-CUBETA PLAST. 22CM 7737             0000008000000000284500370000000000000000000000000000300                                                                                                                        
1433148       433       00000008420118718109PENT-RODILLO BICOLOR 60A 22CM      71810 0000005000000000599000000000000000000000000000000000700                                                                                                                        
1449019       449       00000008423343211100JAR-CRUCETA  1MM.( 300 UD) 2101          0000002000000000280100300000000000000000000000000000300                                                                                                                        
1449025       449       00000008423343211209JAR-CRUCETA  2MM.( 300 UD) 2102          0000002000000000280100300000000000000000000000000000300                                                                                                                        
1449026       449       00000008423343211308JAR-CRUCETA  3MM.( 300 UD) 2103          0000002000000000344200300000000000000000000000000000300                                                                                                                        
1454422       454       00000008420833022536BRIXO-G.TEMPORIZADOR LAVABO 900187       0000004000000001654000000000000000000000000000000000700                                                                                                                        
1487511       487       00000008412272220062VIK-ESCOBILLON KLASIKA 22006+MANGO 60026 0000012000000000165200000000000000000000000000000000700                                                                                                                        
1502076       502       00000004007871060955LUX-CASCO PROTECC. AUDITIVA AZUL  106095 0000003000000000444800000000000000000000000000000000700                                                                                                                        
1528066       528       00000008421411008072MEDID-CINTA SEÑAL.BICOLOR 7CM 39/4       0000004000000000285000000000000000000000000000000000700                                                                                                                        
1544061       544       00000008427492165581FIELTRO CUBRESUELO 1X25 200GRS 17924     0000001000000001489600000000000000000000000000000000700                                                                                                                        
1553047       553       00000008420833023281ENEIDE-SARTEN ALU.FORJA IND.3 CAPAS 26CM 0000002000000000927000000000000000000000000000000000700                                                                                                                        
1553048       553       00000008420833023298ENEIDE-SARTEN ALU.FORJA IND.3 CAPAS 28CM 0000002000000000998000000000000000000000000000000000700                                                                                                                        
1569611       569       00000008420833020471ENEIDE-TERMO INOX 1 L + 2TAZAS COLOR     0000002000000000540000000000000000000000000000000000700                                                                                                                        
1571085       571       00000008430045026871BRIXO-PALA CUAD.CP35023 M/ANILLA 374961  0000002000000000704000000000000000000000000000000000700                                                                                                                        
1597015       597       00000008430045084628BRIXO-BROCHA M/PLAST.DOBLE 30MM 472441   0000012000000000054000350000000000000000000000000000300                                                                                                                        
1610049       610       00000008431832040506ABC-TIRAFONDO BICR 4  X 50 FADIS    100U 0000005000000000196100400000300000000000000000000000700                                                                                                                        
1610061       610       00000008431832050604ABC-TIRAFONDO BICR 5  X 60 FADIS    100U 0000002000000000361400400000300000000000000000000000700                                                                                                                        
1615003       615       00000008422921400042FM-PINTURA SPRAY 520CC BLANCO BRILLO     0000012000000000257000000000000000000000000000000000300                                                                                                                        
1615023       615       00000008422921200048FM-PINTURA SPRAY 270CC BLANCO BRILLO     0000012000000000280000370000000000000000000000000000300                                                                                                                        
1615030       615       00000008422921200116FM-PINTURA SPRAY 270CC VERDE HIERBA      0000012000000000280000370000000000000000000000000000300                                                                                                                        
1643105       643       00000008430044686700BRIXO-LLAVE FIJA 6X7MM            468670 0000003000000000100500000000000000000000000000000000700                                                                                                                        
1643106       643       00000008430044686717BRIXO-LLAVE FIJA 8X9MM            468671 0000003000000000102300000000000000000000000000000000700                                                                                                                        
1643116       643       00000008430044686908BRIXO-LLAVE COMBINADA 7MM         468690 0000003000000000096500000000000000000000000000000000700                                                                                                                        
1643117       643       00000008430044686915BRIXO-LLAVE COMBINADA 8MM         468691 0000005000000000083900000000000000000000000000000000700                                                                                                                        
1643120       643       00000008430044686946BRIXO-LLAVE COMBINADA 12MM        468694 0000002000000000116400000000000000000000000000000000700                                                                                                                        
1643165       643       00000008420833021638BRIXO-ESPATULA MANGO GOMA 4CM     535270 0000006000000000125000000000000000000000000000000000700                                                                                                                        
1652065       652       00000008713016041524TRISTAR-PAE MULTI MIXER 4152             0000001000000002380000000000000000000000000000000000700                                                                                                                        
